{
  "contractName": "AstterFi",
  "abi": [
    {
      "inputs": [],
      "stateMutability": "nonpayable",
      "type": "constructor"
    },
    {
      "anonymous": false,
      "inputs": [
        {
          "indexed": true,
          "internalType": "address",
          "name": "user",
          "type": "address"
        },
        {
          "indexed": true,
          "internalType": "uint256",
          "name": "newLimit",
          "type": "uint256"
        }
      ],
      "name": "CreditLimitIncreased",
      "type": "event"
    },
    {
      "anonymous": false,
      "inputs": [
        {
          "indexed": true,
          "internalType": "uint256",
          "name": "transferId",
          "type": "uint256"
        },
        {
          "indexed": true,
          "internalType": "address",
          "name": "seller",
          "type": "address"
        },
        {
          "indexed": true,
          "internalType": "address",
          "name": "borrower",
          "type": "address"
        },
        {
          "indexed": false,
          "internalType": "uint256",
          "name": "amount",
          "type": "uint256"
        }
      ],
      "name": "CreditTrasnfered",
      "type": "event"
    },
    {
      "stateMutability": "nonpayable",
      "type": "fallback"
    },
    {
      "stateMutability": "payable",
      "type": "receive"
    },
    {
      "inputs": [
        {
          "internalType": "uint256",
          "name": "rate",
          "type": "uint256"
        }
      ],
      "name": "setInterestRate",
      "outputs": [],
      "stateMutability": "nonpayable",
      "type": "function"
    },
    {
      "inputs": [
        {
          "internalType": "address",
          "name": "seller",
          "type": "address"
        },
        {
          "internalType": "uint256",
          "name": "amount",
          "type": "uint256"
        }
      ],
      "name": "approveBorrow",
      "outputs": [],
      "stateMutability": "nonpayable",
      "type": "function"
    },
    {
      "inputs": [],
      "name": "getLimit",
      "outputs": [
        {
          "internalType": "uint256",
          "name": "",
          "type": "uint256"
        }
      ],
      "stateMutability": "view",
      "type": "function"
    },
    {
      "inputs": [],
      "name": "getDeposit",
      "outputs": [
        {
          "internalType": "uint256",
          "name": "",
          "type": "uint256"
        }
      ],
      "stateMutability": "view",
      "type": "function"
    },
    {
      "inputs": [],
      "name": "withdrawDeposit",
      "outputs": [],
      "stateMutability": "nonpayable",
      "type": "function"
    }
  ],
  "bytecode": "0x60806040523480156200001157600080fd5b50336000806101000a81548173ffffffffffffffffffffffffffffffffffffffff021916908373ffffffffffffffffffffffffffffffffffffffff1602179055506000600181905550600060086040516200006c9062000158565b908152602001604051809103902081905550600060086040516200009090620001bf565b90815260200160405180910390208190555073868df7b30d931bf0a48755c9d94d0e4618a25cf2600460006101000a81548173ffffffffffffffffffffffffffffffffffffffff021916908373ffffffffffffffffffffffffffffffffffffffff160217905550620001d6565b600081905092915050565b7f5553445400000000000000000000000000000000000000000000000000000000600082015250565b600062000140600483620000fd565b91506200014d8262000108565b600482019050919050565b6000620001658262000131565b9150819050919050565b7f4d41544943000000000000000000000000000000000000000000000000000000600082015250565b6000620001a7600583620000fd565b9150620001b4826200016f565b600582019050919050565b6000620001cc8262000198565b9150819050919050565b61104680620001e66000396000f3fe60806040526004361061004e5760003560e01c8063117df088146102c65780635f84f302146102dd5780637fa0b84e14610306578063b295a00e1461032f578063c399ec881461035a576102b7565b366102b7576000600660003373ffffffffffffffffffffffffffffffffffffffff1673ffffffffffffffffffffffffffffffffffffffff1681526020019081526020016000205490506000600460009054906101000a900473ffffffffffffffffffffffffffffffffffffffff1673ffffffffffffffffffffffffffffffffffffffff16639743665573d0d5e3db44de05e9f294bb0a3beeaf030de24ada730fcaa9c899ec5a91ebc3d5dd869de833b06fb04660086040518463ffffffff1660e01b8152600401610121939291906109dd565b602060405180830381865afa15801561013e573d6000803e3d6000fd5b505050506040513d601f19601f820116820180604052508101906101629190610a4f565b905061018961017a823461038590919063ffffffff16565b8361039b90919063ffffffff16565b915081600660003373ffffffffffffffffffffffffffffffffffffffff1673ffffffffffffffffffffffffffffffffffffffff1681526020019081526020016000208190555061022134600a60003373ffffffffffffffffffffffffffffffffffffffff1673ffffffffffffffffffffffffffffffffffffffff1681526020019081526020016000205461039b90919063ffffffff16565b600a60003373ffffffffffffffffffffffffffffffffffffffff1673ffffffffffffffffffffffffffffffffffffffff1681526020019081526020016000208190555061029334600860405161027690610ad3565b90815260200160405180910390205461039b90919063ffffffff16565b60086040516102a190610ad3565b9081526020016040518091039020819055505050005b3480156102c357600080fd5b50005b3480156102d257600080fd5b506102db6103b1565b005b3480156102e957600080fd5b5061030460048036038101906102ff9190610b1e565b610522565b005b34801561031257600080fd5b5061032d60048036038101906103289190610b77565b61052c565b005b34801561033b57600080fd5b506103446108a6565b6040516103519190610bc6565b60405180910390f35b34801561036657600080fd5b5061036f6108ed565b60405161037c9190610bc6565b60405180910390f35b600081836103939190610c10565b905092915050565b600081836103a99190610c6a565b905092915050565b6000600760003373ffffffffffffffffffffffffffffffffffffffff1673ffffffffffffffffffffffffffffffffffffffff1681526020019081526020016000205414610433576040517f08c379a000000000000000000000000000000000000000000000000000000000815260040161042a90610d43565b60405180910390fd5b6000600660003373ffffffffffffffffffffffffffffffffffffffff1673ffffffffffffffffffffffffffffffffffffffff168152602001908152602001600020819055503373ffffffffffffffffffffffffffffffffffffffff16600a60003373ffffffffffffffffffffffffffffffffffffffff1673ffffffffffffffffffffffffffffffffffffffff168152602001908152602001600020546040516104db90610d94565b60006040518083038185875af1925050503d8060008114610518576040519150601f19603f3d011682016040523d82523d6000602084013e61051d565b606091505b505050565b8060028190555050565b600760003373ffffffffffffffffffffffffffffffffffffffff1673ffffffffffffffffffffffffffffffffffffffff16815260200190815260200160002054600660003373ffffffffffffffffffffffffffffffffffffffff1673ffffffffffffffffffffffffffffffffffffffff168152602001908152602001600020546105b69190610da9565b81106105f7576040517f08c379a00000000000000000000000000000000000000000000000000000000081526004016105ee90610e29565b60405180910390fd5b60011515600960008473ffffffffffffffffffffffffffffffffffffffff1673ffffffffffffffffffffffffffffffffffffffff16815260200190815260200160002060009054906101000a900460ff1615151461068a576040517f08c379a000000000000000000000000000000000000000000000000000000000815260040161068190610e95565b60405180910390fd5b60011515600960003373ffffffffffffffffffffffffffffffffffffffff1673ffffffffffffffffffffffffffffffffffffffff16815260200190815260200160002060009054906101000a900460ff1615151461071d576040517f08c379a000000000000000000000000000000000000000000000000000000000815260040161071490610f01565b60405180910390fd5b61076f81600760003373ffffffffffffffffffffffffffffffffffffffff1673ffffffffffffffffffffffffffffffffffffffff1681526020019081526020016000205461039b90919063ffffffff16565b600760003373ffffffffffffffffffffffffffffffffffffffff1673ffffffffffffffffffffffffffffffffffffffff168152602001908152602001600020819055506107e18160086040516107c490610f6d565b90815260200160405180910390205461093490919063ffffffff16565b60086040516107ef90610f6d565b908152602001604051809103902081905550600560009054906101000a900473ffffffffffffffffffffffffffffffffffffffff1673ffffffffffffffffffffffffffffffffffffffff1663a9059cbb83836040518363ffffffff1660e01b815260040161085e929190610f82565b6020604051808303816000875af115801561087d573d6000803e3d6000fd5b505050506040513d601f19601f820116820180604052508101906108a19190610fe3565b505050565b6000600660003373ffffffffffffffffffffffffffffffffffffffff1673ffffffffffffffffffffffffffffffffffffffff16815260200190815260200160002054905090565b6000600a60003373ffffffffffffffffffffffffffffffffffffffff1673ffffffffffffffffffffffffffffffffffffffff16815260200190815260200160002054905090565b600081836109429190610da9565b905092915050565b600073ffffffffffffffffffffffffffffffffffffffff82169050919050565b60006109758261094a565b9050919050565b6109858161096a565b82525050565b6000819050919050565b600060ff82169050919050565b6000819050919050565b60006109c76109c26109bd8461098b565b6109a2565b610995565b9050919050565b6109d7816109ac565b82525050565b60006060820190506109f2600083018661097c565b6109ff602083018561097c565b610a0c60408301846109ce565b949350505050565b600080fd5b6000819050919050565b610a2c81610a19565b8114610a3757600080fd5b50565b600081519050610a4981610a23565b92915050565b600060208284031215610a6557610a64610a14565b5b6000610a7384828501610a3a565b91505092915050565b600081905092915050565b7f4d41544943000000000000000000000000000000000000000000000000000000600082015250565b6000610abd600583610a7c565b9150610ac882610a87565b600582019050919050565b6000610ade82610ab0565b9150819050919050565b6000819050919050565b610afb81610ae8565b8114610b0657600080fd5b50565b600081359050610b1881610af2565b92915050565b600060208284031215610b3457610b33610a14565b5b6000610b4284828501610b09565b91505092915050565b610b548161096a565b8114610b5f57600080fd5b50565b600081359050610b7181610b4b565b92915050565b60008060408385031215610b8e57610b8d610a14565b5b6000610b9c85828601610b62565b9250506020610bad85828601610b09565b9150509250929050565b610bc081610ae8565b82525050565b6000602082019050610bdb6000830184610bb7565b92915050565b7f4e487b7100000000000000000000000000000000000000000000000000000000600052601160045260246000fd5b6000610c1b82610ae8565b9150610c2683610ae8565b9250817fffffffffffffffffffffffffffffffffffffffffffffffffffffffffffffffff0483118215151615610c5f57610c5e610be1565b5b828202905092915050565b6000610c7582610ae8565b9150610c8083610ae8565b9250827fffffffffffffffffffffffffffffffffffffffffffffffffffffffffffffffff03821115610cb557610cb4610be1565b5b828201905092915050565b600082825260208201905092915050565b7f416d6f756e7420626f72726f7765642079657420746f2062652072657061796560008201527f6400000000000000000000000000000000000000000000000000000000000000602082015250565b6000610d2d602183610cc0565b9150610d3882610cd1565b604082019050919050565b60006020820190508181036000830152610d5c81610d20565b9050919050565b600081905092915050565b50565b6000610d7e600083610d63565b9150610d8982610d6e565b600082019050919050565b6000610d9f82610d71565b9150819050919050565b6000610db482610ae8565b9150610dbf83610ae8565b925082821015610dd257610dd1610be1565b5b828203905092915050565b7f457863656564656420437265646974204c696d69740000000000000000000000600082015250565b6000610e13601583610cc0565b9150610e1e82610ddd565b602082019050919050565b60006020820190508181036000830152610e4281610e06565b9050919050565b7f53656c6c6572206e6f7420726567697374657265640000000000000000000000600082015250565b6000610e7f601583610cc0565b9150610e8a82610e49565b602082019050919050565b60006020820190508181036000830152610eae81610e72565b9050919050565b7f55736572206e6f74207265676973746572656400000000000000000000000000600082015250565b6000610eeb601383610cc0565b9150610ef682610eb5565b602082019050919050565b60006020820190508181036000830152610f1a81610ede565b9050919050565b7f5553445400000000000000000000000000000000000000000000000000000000600082015250565b6000610f57600483610a7c565b9150610f6282610f21565b600482019050919050565b6000610f7882610f4a565b9150819050919050565b6000604082019050610f97600083018561097c565b610fa46020830184610bb7565b9392505050565b60008115159050919050565b610fc081610fab565b8114610fcb57600080fd5b50565b600081519050610fdd81610fb7565b92915050565b600060208284031215610ff957610ff8610a14565b5b600061100784828501610fce565b9150509291505056fea2646970667358221220e25340a1c7114fb1a67c174addbf538c089e8e4c7cc727e98806b8ee7979813964736f6c634300080b0033",
  "immutableReferences": {},
  "source": "// SPDX-License-Identifier: MIT\npragma solidity >=0.4.22 <0.9.0;\n\nimport \"@openzeppelin/contracts/utils/math/SafeMath.sol\";\nimport \"@chainlink/contracts/src/v0.8/interfaces/AggregatorV3Interface.sol\";\nimport \"../contracts/PriceFetcher.sol\";\n\ninterface IERC20 {\n    event Transfer(address indexed from, address indexed to, uint256 value);\n    event Approval(address indexed owner, address indexed spender, uint256 value);\n    function totalSupply() external view returns (uint256);\n    function balanceOf(address account) external view returns (uint256);\n    function transfer(address to, uint256 amount) external returns (bool);\n    function allowance(address owner, address spender) external view returns (uint256);\n    function approve(address spender, uint256 amount) external returns (bool);\n    function transferFrom(\n        address from,\n        address to,\n        uint256 amount\n    ) external returns (bool);\n}\n\ncontract AstterFi {\n  using SafeMath for uint256;\n  address owner;\n  uint regNo;\n  uint interestRate;\n  uint transferId;\n  PriceConverter pf;\n  IERC20 USDT;\n\n  mapping(address => uint) credit_limit;\n  mapping(address => uint) borrowed;\n  mapping(string => uint) treasury;\n  mapping(address => bool) registeredUser;\n  mapping(address => uint) deposit;\n\n  event CreditLimitIncreased(address indexed user, uint indexed newLimit);\n  event CreditTrasnfered(uint indexed transferId, address indexed seller, address indexed borrower, uint amount);\n\n  modifier onlyOwner{\n     require(msg.sender == owner, \"Only owner can make changes\");\n     _;\n  }\n\n  constructor() {\n    owner = msg.sender;\n    regNo = 0;\n    treasury[\"USDT\"] = 0;\n    treasury[\"MATIC\"] = 0;\n    pf = PriceConverter(0x868DF7B30D931Bf0a48755C9D94d0e4618a25cf2);\n    //USDT = IERC20();\n  }\n\n  fallback() external{}\n\n  receive() external payable { \n      uint limit = credit_limit[msg.sender];\n      uint rate = uint(pf.getDerivedPrice(0xd0D5e3DB44DE05E9F294BB0a3bEEaF030DE24Ada, 0x0FCAa9c899EC5A91eBc3D5Dd869De833b06fB046, 8));\n      limit = limit.add(msg.value.mul(rate));\n      credit_limit[msg.sender] = limit;\n\n      deposit[msg.sender] = deposit[msg.sender].add(msg.value); \n      treasury[\"MATIC\"] = treasury[\"MATIC\"].add(msg.value);\n  }\n\n  function setInterestRate(uint rate) external {\n      interestRate = rate;\n  } \n\n  function approveBorrow(address seller, uint amount) external {\n      require(amount < (credit_limit[msg.sender] - borrowed[msg.sender]), \"Exceeded Credit Limit\");\n      require(registeredUser[seller] == true, \"Seller not registered\");\n      require(registeredUser[msg.sender] == true, \"User not registered\");\n\n      borrowed[msg.sender] = borrowed[msg.sender].add(amount);\n      treasury[\"USDT\"] = treasury[\"USDT\"].sub(amount);\n\n      USDT.transfer(seller, amount);\n  }\n\n  function getLimit() external view returns(uint){\n     return credit_limit[msg.sender];\n  }\n\n  function getDeposit() external view returns(uint) {\n     return deposit[msg.sender];\n  }\n\n  function withdrawDeposit() external {\n    require(borrowed[msg.sender] == 0, \"Amount borrowed yet to be repayed\");\n    //require(registeredUser[msg.sender] == true, \"User must be registered to withdraw funds\");\n    credit_limit[msg.sender] = 0;\n\n    msg.sender.call{value: deposit[msg.sender]}(\"\");\n  }\n  //1% per month\n}\n",
  "sourcePath": "D:\\github\\Astter.Fi\\contracts\\AstterFi.sol",
  "compiler": {
    "name": "solc",
    "version": "0.8.11+commit.d7f03943.Emscripten.clang"
  },
  "schemaVersion": "3.4.4",
  "updatedAt": "2022-05-27T06:40:35.336Z",
  "devdoc": {
    "kind": "dev",
    "methods": {},
    "version": 1
  },
  "userdoc": {
    "kind": "user",
    "methods": {},
    "version": 1
  }
}