{
  "contractName": "AstterFi",
  "abi": [
    {
      "inputs": [],
      "stateMutability": "nonpayable",
      "type": "constructor"
    },
    {
      "anonymous": false,
      "inputs": [
        {
          "indexed": true,
          "internalType": "address",
          "name": "user",
          "type": "address"
        },
        {
          "indexed": true,
          "internalType": "uint256",
          "name": "newLimit",
          "type": "uint256"
        }
      ],
      "name": "CreditLimitIncreased",
      "type": "event"
    },
    {
      "anonymous": false,
      "inputs": [
        {
          "indexed": true,
          "internalType": "uint256",
          "name": "transferId",
          "type": "uint256"
        },
        {
          "indexed": true,
          "internalType": "address",
          "name": "seller",
          "type": "address"
        },
        {
          "indexed": true,
          "internalType": "address",
          "name": "borrower",
          "type": "address"
        },
        {
          "indexed": false,
          "internalType": "uint256",
          "name": "amount",
          "type": "uint256"
        }
      ],
      "name": "CreditTrasnfered",
      "type": "event"
    },
    {
      "stateMutability": "nonpayable",
      "type": "fallback"
    },
    {
      "stateMutability": "payable",
      "type": "receive"
    },
    {
      "inputs": [
        {
          "internalType": "uint256",
          "name": "rate",
          "type": "uint256"
        }
      ],
      "name": "setInterestRate",
      "outputs": [],
      "stateMutability": "nonpayable",
      "type": "function"
    },
    {
      "inputs": [
        {
          "internalType": "address",
          "name": "_addr",
          "type": "address"
        }
      ],
      "name": "setTokenAddress",
      "outputs": [],
      "stateMutability": "nonpayable",
      "type": "function"
    },
    {
      "inputs": [
        {
          "internalType": "address",
          "name": "seller",
          "type": "address"
        },
        {
          "internalType": "uint256",
          "name": "amount",
          "type": "uint256"
        }
      ],
      "name": "approveBorrow",
      "outputs": [],
      "stateMutability": "nonpayable",
      "type": "function"
    },
    {
      "inputs": [],
      "name": "getLimit",
      "outputs": [
        {
          "internalType": "uint256",
          "name": "",
          "type": "uint256"
        }
      ],
      "stateMutability": "view",
      "type": "function"
    },
    {
      "inputs": [],
      "name": "getDeposit",
      "outputs": [
        {
          "internalType": "uint256",
          "name": "",
          "type": "uint256"
        }
      ],
      "stateMutability": "view",
      "type": "function"
    },
    {
      "inputs": [],
      "name": "withdrawDeposit",
      "outputs": [],
      "stateMutability": "nonpayable",
      "type": "function"
    },
    {
      "inputs": [],
      "name": "getDeadline",
      "outputs": [
        {
          "internalType": "uint256[6]",
          "name": "",
          "type": "uint256[6]"
        }
      ],
      "stateMutability": "view",
      "type": "function"
    },
    {
      "inputs": [
        {
          "internalType": "uint256",
          "name": "n",
          "type": "uint256"
        }
      ],
      "name": "getDeadlineStatus",
      "outputs": [
        {
          "internalType": "bool",
          "name": "",
          "type": "bool"
        }
      ],
      "stateMutability": "view",
      "type": "function"
    },
    {
      "inputs": [
        {
          "internalType": "uint256",
          "name": "n",
          "type": "uint256"
        }
      ],
      "name": "repay",
      "outputs": [],
      "stateMutability": "nonpayable",
      "type": "function"
    },
    {
      "inputs": [],
      "name": "repayFull",
      "outputs": [],
      "stateMutability": "nonpayable",
      "type": "function"
    }
  ],
  "bytecode": "0x60806040523480156200001157600080fd5b50336000806101000a81548173ffffffffffffffffffffffffffffffffffffffff021916908373ffffffffffffffffffffffffffffffffffffffff16021790555060006001819055506103e860086040516200006d9062000159565b908152602001604051809103902081905550600060086040516200009190620001c0565b90815260200160405180910390208190555073868df7b30d931bf0a48755c9d94d0e4618a25cf2600460006101000a81548173ffffffffffffffffffffffffffffffffffffffff021916908373ffffffffffffffffffffffffffffffffffffffff160217905550620001d7565b600081905092915050565b7f5553445400000000000000000000000000000000000000000000000000000000600082015250565b600062000141600483620000fe565b91506200014e8262000109565b600482019050919050565b6000620001668262000132565b9150819050919050565b7f4d41544943000000000000000000000000000000000000000000000000000000600082015250565b6000620001a8600583620000fe565b9150620001b58262000170565b600582019050919050565b6000620001cd8262000199565b9150819050919050565b61210180620001e76000396000f3fe6080604052600436106100955760003560e01c80635f8d96de116100595780635f8d96de146103cc5780637fa0b84e146103f7578063b295a00e14610420578063c399ec881461044b578063e5f200eb1461047657610314565b8063117df0881461032357806326a4e8d21461033a57806329d93d6714610363578063371fd8e61461037a5780635f84f302146103a357610314565b36610314576000600660003373ffffffffffffffffffffffffffffffffffffffff1673ffffffffffffffffffffffffffffffffffffffff1681526020019081526020016000205490506000600460009054906101000a900473ffffffffffffffffffffffffffffffffffffffff1673ffffffffffffffffffffffffffffffffffffffff16639743665573d0d5e3db44de05e9f294bb0a3beeaf030de24ada730fcaa9c899ec5a91ebc3d5dd869de833b06fb04660086040518463ffffffff1660e01b815260040161016893929190611852565b602060405180830381865afa158015610185573d6000803e3d6000fd5b505050506040513d601f19601f820116820180604052508101906101a991906118c4565b90506101d06101c182346104b390919063ffffffff16565b836104c990919063ffffffff16565b91506101e96305f5e100836104df90919063ffffffff16565b600660003373ffffffffffffffffffffffffffffffffffffffff1673ffffffffffffffffffffffffffffffffffffffff1681526020019081526020016000208190555061027e34600960003373ffffffffffffffffffffffffffffffffffffffff1673ffffffffffffffffffffffffffffffffffffffff168152602001908152602001600020546104c990919063ffffffff16565b600960003373ffffffffffffffffffffffffffffffffffffffff1673ffffffffffffffffffffffffffffffffffffffff168152602001908152602001600020819055506102f03460086040516102d390611948565b9081526020016040518091039020546104c990919063ffffffff16565b60086040516102fe90611948565b9081526020016040518091039020819055505050005b34801561032057600080fd5b50005b34801561032f57600080fd5b506103386104f5565b005b34801561034657600080fd5b50610361600480360381019061035c9190611989565b610734565b005b34801561036f57600080fd5b50610378610778565b005b34801561038657600080fd5b506103a1600480360381019061039c91906119ec565b610a36565b005b3480156103af57600080fd5b506103ca60048036038101906103c591906119ec565b610dbf565b005b3480156103d857600080fd5b506103e1610dc9565b6040516103ee9190611ac4565b60405180910390f35b34801561040357600080fd5b5061041e60048036038101906104199190611adf565b610fed565b005b34801561042c57600080fd5b50610435611692565b6040516104429190611b2e565b60405180910390f35b34801561045757600080fd5b506104606116d9565b60405161046d9190611b2e565b60405180910390f35b34801561048257600080fd5b5061049d600480360381019061049891906119ec565b611720565b6040516104aa9190611b64565b60405180910390f35b600081836104c19190611bae565b905092915050565b600081836104d79190611c08565b905092915050565b600081836104ed9190611c8d565b905092915050565b6000600960003373ffffffffffffffffffffffffffffffffffffffff1673ffffffffffffffffffffffffffffffffffffffff168152602001908152602001600020541415610578576040517f08c379a000000000000000000000000000000000000000000000000000000000815260040161056f90611d1b565b60405180910390fd5b6000600760003373ffffffffffffffffffffffffffffffffffffffff1673ffffffffffffffffffffffffffffffffffffffff16815260200190815260200160002054146105fa576040517f08c379a00000000000000000000000000000000000000000000000000000000081526004016105f190611dad565b60405180910390fd5b6000600960003373ffffffffffffffffffffffffffffffffffffffff1673ffffffffffffffffffffffffffffffffffffffff1681526020019081526020016000205490506000600960003373ffffffffffffffffffffffffffffffffffffffff1673ffffffffffffffffffffffffffffffffffffffff168152602001908152602001600020819055506000600660003373ffffffffffffffffffffffffffffffffffffffff1673ffffffffffffffffffffffffffffffffffffffff168152602001908152602001600020819055503373ffffffffffffffffffffffffffffffffffffffff16816040516106ec90611dfe565b60006040518083038185875af1925050503d8060008114610729576040519150601f19603f3d011682016040523d82523d6000602084013e61072e565b606091505b50505050565b80600560006101000a81548173ffffffffffffffffffffffffffffffffffffffff021916908373ffffffffffffffffffffffffffffffffffffffff16021790555050565b600560009054906101000a900473ffffffffffffffffffffffffffffffffffffffff1673ffffffffffffffffffffffffffffffffffffffff166323b872dd3330600760003373ffffffffffffffffffffffffffffffffffffffff1673ffffffffffffffffffffffffffffffffffffffff168152602001908152602001600020546040518463ffffffff1660e01b815260040161081693929190611e13565b6020604051808303816000875af1158015610835573d6000803e3d6000fd5b505050506040513d601f19601f820116820180604052508101906108599190611e76565b506001600b60003373ffffffffffffffffffffffffffffffffffffffff1673ffffffffffffffffffffffffffffffffffffffff168152602001908152602001600020600080815260200190815260200160002060006101000a81548160ff0219169083151502179055506001600b60003373ffffffffffffffffffffffffffffffffffffffff1673ffffffffffffffffffffffffffffffffffffffff16815260200190815260200160002060006001815260200190815260200160002060006101000a81548160ff0219169083151502179055506001600b60003373ffffffffffffffffffffffffffffffffffffffff1673ffffffffffffffffffffffffffffffffffffffff16815260200190815260200160002060006002815260200190815260200160002060006101000a81548160ff0219169083151502179055506000600760003373ffffffffffffffffffffffffffffffffffffffff1673ffffffffffffffffffffffffffffffffffffffff168152602001908152602001600020819055506000600c60003373ffffffffffffffffffffffffffffffffffffffff1673ffffffffffffffffffffffffffffffffffffffff16815260200190815260200160002060006101000a81548160ff021916908315150217905550565b60001515600b60003373ffffffffffffffffffffffffffffffffffffffff1673ffffffffffffffffffffffffffffffffffffffff168152602001908152602001600020600083815260200190815260200160002060009054906101000a900460ff16151514610ada576040517f08c379a0000000000000000000000000000000000000000000000000000000008152600401610ad190611eef565b60405180910390fd5b600560009054906101000a900473ffffffffffffffffffffffffffffffffffffffff1673ffffffffffffffffffffffffffffffffffffffff166323b872dd3330600d60003373ffffffffffffffffffffffffffffffffffffffff1673ffffffffffffffffffffffffffffffffffffffff1681526020019081526020016000206000868152602001908152602001600020546040518463ffffffff1660e01b8152600401610b8993929190611e13565b6020604051808303816000875af1158015610ba8573d6000803e3d6000fd5b505050506040513d601f19601f82011682018060405250810190610bcc9190611e76565b506001600b60003373ffffffffffffffffffffffffffffffffffffffff1673ffffffffffffffffffffffffffffffffffffffff168152602001908152602001600020600083815260200190815260200160002060006101000a81548160ff021916908315150217905550610cd8600d60003373ffffffffffffffffffffffffffffffffffffffff1673ffffffffffffffffffffffffffffffffffffffff168152602001908152602001600020600083815260200190815260200160002054600760003373ffffffffffffffffffffffffffffffffffffffff1673ffffffffffffffffffffffffffffffffffffffff1681526020019081526020016000205461178790919063ffffffff16565b600760003373ffffffffffffffffffffffffffffffffffffffff1673ffffffffffffffffffffffffffffffffffffffff168152602001908152602001600020819055506000600760003373ffffffffffffffffffffffffffffffffffffffff1673ffffffffffffffffffffffffffffffffffffffff168152602001908152602001600020541415610dbc576000600c60003373ffffffffffffffffffffffffffffffffffffffff1673ffffffffffffffffffffffffffffffffffffffff16815260200190815260200160002060006101000a81548160ff0219169083151502179055505b50565b8060028190555050565b610dd161179d565b60006040518060c00160405280600d60003373ffffffffffffffffffffffffffffffffffffffff1673ffffffffffffffffffffffffffffffffffffffff1681526020019081526020016000206000808152602001908152602001600020548152602001600a60003373ffffffffffffffffffffffffffffffffffffffff1673ffffffffffffffffffffffffffffffffffffffff1681526020019081526020016000206000808152602001908152602001600020548152602001600d60003373ffffffffffffffffffffffffffffffffffffffff1673ffffffffffffffffffffffffffffffffffffffff168152602001908152602001600020600060018152602001908152602001600020548152602001600a60003373ffffffffffffffffffffffffffffffffffffffff1673ffffffffffffffffffffffffffffffffffffffff168152602001908152602001600020600060018152602001908152602001600020548152602001600d60003373ffffffffffffffffffffffffffffffffffffffff1673ffffffffffffffffffffffffffffffffffffffff168152602001908152602001600020600060028152602001908152602001600020548152602001600a60003373ffffffffffffffffffffffffffffffffffffffff1673ffffffffffffffffffffffffffffffffffffffff1681526020019081526020016000206000600281526020019081526020016000205481525090508091505090565b60011515600c60003373ffffffffffffffffffffffffffffffffffffffff1673ffffffffffffffffffffffffffffffffffffffff16815260200190815260200160002060009054906101000a900460ff1615151415611081576040517f08c379a000000000000000000000000000000000000000000000000000000000815260040161107890611f81565b60405180910390fd5b600660003373ffffffffffffffffffffffffffffffffffffffff1673ffffffffffffffffffffffffffffffffffffffff168152602001908152602001600020546110dc670de0b6b3a7640000836104b390919063ffffffff16565b1061111c576040517f08c379a000000000000000000000000000000000000000000000000000000000815260040161111390611fed565b60405180910390fd5b61116e81600760003373ffffffffffffffffffffffffffffffffffffffff1673ffffffffffffffffffffffffffffffffffffffff168152602001908152602001600020546104c990919063ffffffff16565b600760003373ffffffffffffffffffffffffffffffffffffffff1673ffffffffffffffffffffffffffffffffffffffff168152602001908152602001600020819055506111e08160086040516111c390612059565b90815260200160405180910390205461178790919063ffffffff16565b60086040516111ee90612059565b9081526020016040518091039020819055506001600c60003373ffffffffffffffffffffffffffffffffffffffff1673ffffffffffffffffffffffffffffffffffffffff16815260200190815260200160002060006101000a81548160ff021916908315150217905550600061126e6003836104df90919063ffffffff16565b905080600d60003373ffffffffffffffffffffffffffffffffffffffff1673ffffffffffffffffffffffffffffffffffffffff16815260200190815260200160002060008081526020019081526020016000208190555080600d60003373ffffffffffffffffffffffffffffffffffffffff1673ffffffffffffffffffffffffffffffffffffffff1681526020019081526020016000206000600181526020019081526020016000208190555080600d60003373ffffffffffffffffffffffffffffffffffffffff1673ffffffffffffffffffffffffffffffffffffffff1681526020019081526020016000206000600281526020019081526020016000208190555062278d00426113809190611c08565b600a60003373ffffffffffffffffffffffffffffffffffffffff1673ffffffffffffffffffffffffffffffffffffffff168152602001908152602001600020600080815260200190815260200160002081905550624f1a00426113e39190611c08565b600a60003373ffffffffffffffffffffffffffffffffffffffff1673ffffffffffffffffffffffffffffffffffffffff168152602001908152602001600020600060018152602001908152602001600020819055506276a700426114479190611c08565b600a60003373ffffffffffffffffffffffffffffffffffffffff1673ffffffffffffffffffffffffffffffffffffffff168152602001908152602001600020600060028152602001908152602001600020819055506000600b60003373ffffffffffffffffffffffffffffffffffffffff1673ffffffffffffffffffffffffffffffffffffffff168152602001908152602001600020600080815260200190815260200160002060006101000a81548160ff0219169083151502179055506000600b60003373ffffffffffffffffffffffffffffffffffffffff1673ffffffffffffffffffffffffffffffffffffffff16815260200190815260200160002060006001815260200190815260200160002060006101000a81548160ff0219169083151502179055506000600b60003373ffffffffffffffffffffffffffffffffffffffff1673ffffffffffffffffffffffffffffffffffffffff16815260200190815260200160002060006002815260200190815260200160002060006101000a81548160ff021916908315150217905550600560009054906101000a900473ffffffffffffffffffffffffffffffffffffffff1673ffffffffffffffffffffffffffffffffffffffff1663a9059cbb84670de0b6b3a76400008561162c9190611bae565b6040518363ffffffff1660e01b815260040161164992919061206e565b6020604051808303816000875af1158015611668573d6000803e3d6000fd5b505050506040513d601f19601f8201168201806040525081019061168c9190611e76565b50505050565b6000600660003373ffffffffffffffffffffffffffffffffffffffff1673ffffffffffffffffffffffffffffffffffffffff16815260200190815260200160002054905090565b6000600960003373ffffffffffffffffffffffffffffffffffffffff1673ffffffffffffffffffffffffffffffffffffffff16815260200190815260200160002054905090565b6000600b60003373ffffffffffffffffffffffffffffffffffffffff1673ffffffffffffffffffffffffffffffffffffffff168152602001908152602001600020600083815260200190815260200160002060009054906101000a900460ff169050919050565b600081836117959190612097565b905092915050565b6040518060c00160405280600690602082028036833780820191505090505090565b600073ffffffffffffffffffffffffffffffffffffffff82169050919050565b60006117ea826117bf565b9050919050565b6117fa816117df565b82525050565b6000819050919050565b600060ff82169050919050565b6000819050919050565b600061183c61183761183284611800565b611817565b61180a565b9050919050565b61184c81611821565b82525050565b600060608201905061186760008301866117f1565b61187460208301856117f1565b6118816040830184611843565b949350505050565b600080fd5b6000819050919050565b6118a18161188e565b81146118ac57600080fd5b50565b6000815190506118be81611898565b92915050565b6000602082840312156118da576118d9611889565b5b60006118e8848285016118af565b91505092915050565b600081905092915050565b7f4d41544943000000000000000000000000000000000000000000000000000000600082015250565b60006119326005836118f1565b915061193d826118fc565b600582019050919050565b600061195382611925565b9150819050919050565b611966816117df565b811461197157600080fd5b50565b6000813590506119838161195d565b92915050565b60006020828403121561199f5761199e611889565b5b60006119ad84828501611974565b91505092915050565b6000819050919050565b6119c9816119b6565b81146119d457600080fd5b50565b6000813590506119e6816119c0565b92915050565b600060208284031215611a0257611a01611889565b5b6000611a10848285016119d7565b91505092915050565b600060069050919050565b600081905092915050565b6000819050919050565b611a42816119b6565b82525050565b6000611a548383611a39565b60208301905092915050565b6000602082019050919050565b611a7681611a19565b611a808184611a24565b9250611a8b82611a2f565b8060005b83811015611abc578151611aa38782611a48565b9650611aae83611a60565b925050600181019050611a8f565b505050505050565b600060c082019050611ad96000830184611a6d565b92915050565b60008060408385031215611af657611af5611889565b5b6000611b0485828601611974565b9250506020611b15858286016119d7565b9150509250929050565b611b28816119b6565b82525050565b6000602082019050611b436000830184611b1f565b92915050565b60008115159050919050565b611b5e81611b49565b82525050565b6000602082019050611b796000830184611b55565b92915050565b7f4e487b7100000000000000000000000000000000000000000000000000000000600052601160045260246000fd5b6000611bb9826119b6565b9150611bc4836119b6565b9250817fffffffffffffffffffffffffffffffffffffffffffffffffffffffffffffffff0483118215151615611bfd57611bfc611b7f565b5b828202905092915050565b6000611c13826119b6565b9150611c1e836119b6565b9250827fffffffffffffffffffffffffffffffffffffffffffffffffffffffffffffffff03821115611c5357611c52611b7f565b5b828201905092915050565b7f4e487b7100000000000000000000000000000000000000000000000000000000600052601260045260246000fd5b6000611c98826119b6565b9150611ca3836119b6565b925082611cb357611cb2611c5e565b5b828204905092915050565b600082825260208201905092915050565b7f5573657220646f6573206e6f74206861766520616e79206465706f7369740000600082015250565b6000611d05601e83611cbe565b9150611d1082611ccf565b602082019050919050565b60006020820190508181036000830152611d3481611cf8565b9050919050565b7f416d6f756e7420626f72726f7765642079657420746f2062652072657061796560008201527f6400000000000000000000000000000000000000000000000000000000000000602082015250565b6000611d97602183611cbe565b9150611da282611d3b565b604082019050919050565b60006020820190508181036000830152611dc681611d8a565b9050919050565b600081905092915050565b50565b6000611de8600083611dcd565b9150611df382611dd8565b600082019050919050565b6000611e0982611ddb565b9150819050919050565b6000606082019050611e2860008301866117f1565b611e3560208301856117f1565b611e426040830184611b1f565b949350505050565b611e5381611b49565b8114611e5e57600080fd5b50565b600081519050611e7081611e4a565b92915050565b600060208284031215611e8c57611e8b611889565b5b6000611e9a84828501611e61565b91505092915050565b7f496e7374616c6c6d656e7420616c726561647920706169640000000000000000600082015250565b6000611ed9601883611cbe565b9150611ee482611ea3565b602082019050919050565b60006020820190508181036000830152611f0881611ecc565b9050919050565b7f557365722068617320616e206578697374696e6720637265646974207573616760008201527f6500000000000000000000000000000000000000000000000000000000000000602082015250565b6000611f6b602183611cbe565b9150611f7682611f0f565b604082019050919050565b60006020820190508181036000830152611f9a81611f5e565b9050919050565b7f457863656564656420437265646974204c696d69740000000000000000000000600082015250565b6000611fd7601583611cbe565b9150611fe282611fa1565b602082019050919050565b6000602082019050818103600083015261200681611fca565b9050919050565b7f5553445400000000000000000000000000000000000000000000000000000000600082015250565b60006120436004836118f1565b915061204e8261200d565b600482019050919050565b600061206482612036565b9150819050919050565b600060408201905061208360008301856117f1565b6120906020830184611b1f565b9392505050565b60006120a2826119b6565b91506120ad836119b6565b9250828210156120c0576120bf611b7f565b5b82820390509291505056fea2646970667358221220224b31392c3dd114633250f34ce52d69b06b90db229f448b4de87605ce19e2eb64736f6c634300080b0033",
  "immutableReferences": {},
  "source": "// SPDX-License-Identifier: MIT\npragma solidity >=0.4.22 <0.9.0;\n\nimport \"@openzeppelin/contracts/utils/math/SafeMath.sol\";\nimport \"@chainlink/contracts/src/v0.8/interfaces/AggregatorV3Interface.sol\";\nimport \"../contracts/PriceFetcher.sol\";\n\ninterface IERC20 {\n    event Transfer(address indexed from, address indexed to, uint256 value);\n    event Approval(address indexed owner, address indexed spender, uint256 value);\n    function totalSupply() external view returns (uint256);\n    function balanceOf(address account) external view returns (uint256);\n    function transfer(address to, uint256 amount) external returns (bool);\n    function allowance(address owner, address spender) external view returns (uint256);\n    function approve(address spender, uint256 amount) external returns (bool);\n    function transferFrom(\n        address from,\n        address to,\n        uint256 amount\n    ) external returns (bool);\n}\n\ncontract AstterFi {\n  using SafeMath for uint256;\n  address owner;\n  uint regNo;\n  uint interestRate;\n  uint transferId;\n  PriceConverter pf;\n  IERC20 USDT;\n\n  mapping(address => uint) credit_limit;\n  mapping(address => uint) borrowed;\n  mapping(string => uint) treasury;\n  //mapping(address => bool) registeredUser;\n  mapping(address => uint) deposit;\n  mapping(address => mapping(uint => uint)) repayment;\n  mapping(address => mapping(uint => bool)) repaymentStatus;\n  mapping(address => bool) hasBorrowed;\n  mapping(address => mapping(uint => uint)) repayAmount;\n\n  event CreditLimitIncreased(address indexed user, uint indexed newLimit);\n  event CreditTrasnfered(uint indexed transferId, address indexed seller, address indexed borrower, uint amount);\n\n  modifier onlyOwner{\n     require(msg.sender == owner, \"Only owner can make changes\");\n     _;\n  }\n\n  constructor() {\n    owner = msg.sender;\n    regNo = 0;\n    treasury[\"USDT\"] = 1000;\n    treasury[\"MATIC\"] = 0;\n    pf = PriceConverter(0x868DF7B30D931Bf0a48755C9D94d0e4618a25cf2);\n  }\n\n  fallback() external{}\n\n  receive() external payable { \n      uint limit = credit_limit[msg.sender];\n      uint rate = uint(pf.getDerivedPrice(0xd0D5e3DB44DE05E9F294BB0a3bEEaF030DE24Ada, 0x0FCAa9c899EC5A91eBc3D5Dd869De833b06fB046, 8));\n      limit = limit.add(msg.value.mul(rate));\n      credit_limit[msg.sender] = limit.div(10 ** 8);\n\n      deposit[msg.sender] = deposit[msg.sender].add(msg.value); \n      treasury[\"MATIC\"] = treasury[\"MATIC\"].add(msg.value);\n  }\n\n  function setInterestRate(uint rate) external {\n      interestRate = rate;\n  } \n\n  function setTokenAddress(address _addr) external {\n     USDT = IERC20(_addr);\n  }\n\n  function approveBorrow(address seller, uint amount) external {\n      require(hasBorrowed[msg.sender] != true, \"User has an existing credit usage\");\n      require(amount.mul(10 ** 18) < credit_limit[msg.sender], \"Exceeded Credit Limit\");\n\n      borrowed[msg.sender] = borrowed[msg.sender].add(amount);\n      treasury[\"USDT\"] = treasury[\"USDT\"].sub(amount);\n\n      hasBorrowed[msg.sender] = true;\n      //0x83EFDd0E859412c4Ba4E383EA3A9DA09f909F2fC\n      uint installment = amount.div(3);\n\n      repayAmount[msg.sender][0] = installment;\n      repayAmount[msg.sender][1] = installment;\n      repayAmount[msg.sender][2] = installment;\n\n      repayment[msg.sender][0] = block.timestamp + 30 days;\n      repayment[msg.sender][1] = block.timestamp + 60 days;\n      repayment[msg.sender][2] = block.timestamp + 90 days;\n\n      repaymentStatus[msg.sender][0] = false;\n      repaymentStatus[msg.sender][1] = false;\n      repaymentStatus[msg.sender][2] = false;\n\n      USDT.transfer(seller, amount * (10 ** 18));\n  }\n\n  function getLimit() external view returns(uint){\n     return credit_limit[msg.sender];\n  }\n\n  function getDeposit() external view returns(uint) {\n     return deposit[msg.sender];\n  }\n\n  function withdrawDeposit() external {\n    require(deposit[msg.sender] != 0, \"User does not have any deposit\"); \n    require(borrowed[msg.sender] == 0, \"Amount borrowed yet to be repayed\");\n    //require(registeredUser[msg.sender] == true, \"User must be registered to withdraw funds\");\n    uint transferAmt = deposit[msg.sender];\n    deposit[msg.sender] = 0;\n    credit_limit[msg.sender] = 0;\n\n    msg.sender.call{value: transferAmt}(\"\");\n  }\n  //1% per month\n\n  function getDeadline() external view returns(uint[6] memory) {\n      uint[6] memory deadline = [repayAmount[msg.sender][0], repayment[msg.sender][0],\n      repayAmount[msg.sender][1], repayment[msg.sender][1],\n      repayAmount[msg.sender][2], repayment[msg.sender][2]\n      ];\n      return deadline;\n  }\n\n  function getDeadlineStatus(uint n) external view returns(bool) {\n      return repaymentStatus[msg.sender][n];\n  }\n\n  function repay(uint n) external{\n      require(repaymentStatus[msg.sender][n] == false, \"Installment already paid\");\n      USDT.transferFrom(msg.sender, address(this), repayAmount[msg.sender][n]);\n\n      repaymentStatus[msg.sender][n] = true;\n      borrowed[msg.sender] = borrowed[msg.sender].sub(repayAmount[msg.sender][n]);\n      if(borrowed[msg.sender] == 0) {\n        hasBorrowed[msg.sender] = false;\n      }\n  }\n\n  function repayFull() external {\n      USDT.transferFrom(msg.sender, address(this), borrowed[msg.sender]);\n\n      repaymentStatus[msg.sender][0] = true;\n      repaymentStatus[msg.sender][1] = true;\n      repaymentStatus[msg.sender][2] = true;\n\n      borrowed[msg.sender] = 0;\n      hasBorrowed[msg.sender] = false;\n  }\n}\n",
  "sourcePath": "D:\\github\\Astter.Fi\\contracts\\AstterFi.sol",
  "compiler": {
    "name": "solc",
    "version": "0.8.11+commit.d7f03943.Emscripten.clang"
  },
  "schemaVersion": "3.4.4",
  "updatedAt": "2022-05-27T20:59:43.839Z",
  "devdoc": {
    "kind": "dev",
    "methods": {},
    "version": 1
  },
  "userdoc": {
    "kind": "user",
    "methods": {},
    "version": 1
  }
}